:020000040800F2
:100000000000022011130008391200083B120008FA
:100010003D1200083F1200084112000800000000D5
:100020000000000000000000000000004312000873
:10003000451200080000000047120008491200089D
:1000400061130008611300086113000861130008C0
:1000500061130008611300086113000861130008B0
:1000600061130008611300086113000861130008A0
:100070006113000861130008611300086113000890
:100080006113000861130008611300086113000880
:100090006113000861130008611300086113000870
:1000A0006113000861130008611300086113000860
:1000B0006113000861130008611300086113000850
:1000C0006113000861130008611300086113000840
:1000D0006113000861130008611300086113000830
:1000E0006113000861130008611300086113000820
:1000F0006113000861130008611300086113000810
:1001000061130008611300086113000861130008FF
:1001100061130008611300086113000861130008EF
:1001200061130008611300086113000861130008DF
:1001300061130008000000000000000061130008C7
:1001400061130008611300086113000861130008BF
:1001500061130008611300086113000861130008AF
:10016000611300086113000861130008611300089F
:10017000611300086113000861130008000000000B
:1001800000000000611300080000000000000000F3
:100190006113000800000000000000006113000867
:1001A00000000000000000000000000061130008D3
:1001B000611300086113000861130008611300084F
:0401C00061130008BF
:1001C40010B5054C237833B9044B13B10448AFF38D
:1001D40000800123237010BD1000002000000000E7
:1001E400BC13000808B5034B1BB103490348AFF324
:1001F400008008BD0000000014000020BC130008AB
:1002040053B94AB9002908BF00281CBF4FF0FF3179
:100214004FF0FF3000F07AB9ADF1080C6DE904CE6F
:1002240000F006F8DDF804E0DDE9022304B07047CD
:100234002DE9F0478C460D460446089E002B51D10B
:100244008A4217466DD9B2FA82FEBEF1000F0BD076
:10025400CEF1200C01FA0EF520FA0CFC02FA0EF78E
:100264004CEA050C00FA0EF44FEA174A250CBCFBC5
:10027400FAF81FFA87F90AFB18CC45EA0C4508FB83
:1002840009F3AB420AD9ED1908F1FF3280F023815A
:10029400AB4240F22081A8F102083D44ED1AA4B219
:1002A400B5FBFAF00AFB105544EA054400FB09F9D2
:1002B400A14509D9E41900F1FF3380F00A81A14571
:1002C40040F2078102383C44A4EB090440EA0840A8
:1002D4000021002E61D024FA0EF4002334607360F0
:1002E400BDE8F0878B4207D9002E54D0002186E860
:1002F40021000846BDE8F087B3FA83F1002940F0F5
:100304008E80AB4202D3824200F2FA80841A65EBFB
:1003140003050120AC46002E3FD086E81010BDE84E
:10032400F08712B90127B7FBF2F7B7FA87FEBEF1DF
:10033400000F34D1EB1B3A0C1FFA87FC0121B3FBED
:10034400F2F8250C02FB183345EA03450CFB08F3CD
:10035400AB4207D9ED1908F1FF3002D2AB4200F2EB
:10036400D1808046ED1AA3B2B5FBF2F002FB105522
:1003740043EA05440CFB00FCA44507D9E41900F149
:10038400FF3302D2A44500F2B8801846A4EB0C0453
:1003940040EA08409DE731463046BDE8F087CEF19B
:1003A400200405FA0EF307FA0EF720FA04F83A0CC3
:1003B40025FA04F448EA0308B4FBF2F14FEA1845BD
:1003C40002FB11441FFA87FC45EA044501FB0CF3C8
:1003D400AB4200FA0EF409D9ED1901F1FF3080F0B7
:1003E4008A80AB4240F2878002393D44EB1A1FFAFF
:1003F40088F5B3FBF2F002FB103345EA034500FB3A
:100404000CF3AB4207D9ED1900F1FF386FD2AB42C0
:100414006DD902383D44EB1A40EA01418FE7C1F13E
:10042400200722FA07F88B4005FA01F448EA03038F
:1004340020FA07FE4FEA134CFD404EEA040EB5FBCA
:10044400FCF94FEA1E440CFB19551FFA83F844EAE1
:10045400054509FB08F4AC4202FA01F200FA01FA7C
:1004640008D9ED1809F1FF3043D2AC4241D9A9F1C2
:1004740002091D442D1B1FFA8EFEB5FBFCF00CFB7C
:1004840010554EEA054400FB08F8A04507D9E418C6
:1004940000F1FF3529D2A04527D902381C4440EA8F
:1004A4000940A4EB0804A0FB02894C45C6464D460E
:1004B40015D312D056B1BAEB0E0364EB050404FA5B
:1004C40007F7CB401F43CC40376074600021BDE880
:1004D400F0871846F8E69046E0E6C245EAD2B8EB63
:1004E400020E69EB03050138E4E72846D7E74046E6
:1004F40091E78146BEE7014678E702383C4445E788
:10050400084608E7A8F102083D442BE7704700BFFE
:1005140038B50E4A0E4B054618784FF47A73B3FB80
:10052400F0F31068B0FBF3F000F088F8044658B913
:100534000F2D09D8024629464FF0FF3000F04AF843
:10054400044B20461D6038BD012038BD0800002042
:10055400000000200400002008B50B4B1A6842F488
:1005640000721A601A6842F480621A601A6842F4CF
:1005740080721A60032000F01BF80020FFF7C8FF08
:1005840000F038FE002008BD003C0240034A044B42
:1005940011681B780B441360704700BF40000020B3
:1005A40000000020014B1868704700BF4000002085
:1005B400074AD36823F4E0631B041B0C43F0BF63B6
:1005C400000243F4003300F4E0600343D360704757
:1005D40000ED00E0174B30B5DC68C4F30224C4F12D
:1005E4000703251D042B28BF0423062D4FF0010506
:1005F40005FA03F303F1FF338CBF033C00241940D5
:10060400A14005FA04F4013C2240002842EA010218
:100614004FEA0212ADBF00F1604000F00F00064B3C
:1006240000F56140B5BFD2B2D2B21A5480F80023AB
:1006340030BD00BF00ED00E014ED00E00138B0F182
:10064400807F0AD2064B074A5860F02182F82310B3
:100654000020072298601A6070470120704700BF8D
:1006640010E000E000ED00E02DE9F04F85B00B68EC
:10067400DFF8A081654ADFF8A091019300230124EB
:10068400019D9C402540AC4240F0AC804C6824F075
:10069400100C0CF1FF36012E4FEA430E12D8876876
:1006A400032606FA0EF627EA0607CE6806FA0EF6C1
:1006B4003E4386604768C4F3001627EA05079E4058
:1006C4003E4346600326C76806FA0EF6F64307EA79
:1006D400060A8F6807FA0EF747EA0A07BCF1020F09
:1006E400C76016D14FEAD30A00EB8A0A03F0070B5E
:1006F400DAF820704FEA8B0B4FF00F0C0CFA0BFC5E
:1007040027EA0C0C0F6907FA0BF747EA0C07CAF83B
:10071400207007683E4004F0030707FA0EFE4EEA15
:1007240006060660E6005DD54FF0000BCDF80CB070
:10073400D8F84470364E47F48047C8F84470D8F867
:10074400447007F480470397039F23F0030707F1DE
:10075400804707F59C3703F0030CD7F808A04FEA4D
:100764008C0C4FF00F0E0EFA0CFEB0422AEA0E0E5D
:100774003FD006F58066B0423DD006F58066B042B3
:100784003BD006F58066B04239D006F58066B042AB
:1007940037D0484537D006F50066B04214BF072667
:1007A400062606FA0CF646EA0E06BE601668EF4305
:1007B40014F4803F0CBF3E402E431660566814F478
:1007C400003F0CBF3E402E435660966814F4801FD1
:1007D4000CBF3E402E439660D668A40254BF3E40F0
:1007E4002E43D6600133102B7FF449AF05B0BDE82A
:1007F400F08F5E46D5E70126D3E70226D1E703262C
:10080400CFE70426CDE70526CBE700BF003C014037
:1008140000000240003802400014024003691942FB
:1008240014BF0120002070470AB181617047090498
:10083400FBE700002DE9F0410D46044610B9012004
:10084400BDE8F081444B1A6802F00F028A4229D3B2
:1008540021688F072ED4C80741D43F4B1A6802F091
:100864000F02954267D3226851076DD4130707D549
:100874003A4A2169936823F4604343EAC1039360CD
:1008840000F094F8354B364A9B68C3F30313D35CEA
:10089400D840344B1860344B1868FFF739FE0020F9
:1008A400BDE8F081CAB21A701B6803F00F039942C5
:1008B400C5D1CDE7294B11F0040F1EBF9A6842F44D
:1008C400E0529A600E0742BF9A6842F460429A600E
:1008D4009A68A06822F0F00202439A60BBE762685B
:1008E4001E4B012A1DD11B6813F4003FA7D01B4ED9
:1008F400B36823F003031343B360FFF753FE41F2DD
:1009040088380746B368626803F00C03B3EB820FC0
:10091400A3D0FFF747FEC01B4045F3D90320BDE831
:10092400F081911E01291B6802D813F0007FDDE7D6
:1009340013F0020FDAE7EAB21A701B6803F00F0330
:100944009D427FF47CAF8EE70449E0688B6823F412
:10095400E05303438B6089E7003C024000380240C7
:10096400D41300080800002004000020044B054AAA
:100974009B68C3F38223D35C034A1068D840704752
:1009840000380240E413000808000020044B054A24
:100994009B68C3F34233D35C034A1068D840704762
:1009A40000380240E413000808000020204908B57C
:1009B4008B6803F00C03082B07D00C2B20D01D4AA6
:1009C4001D48042B18BF104608BD4A684B68496887
:1009D40013F4800314BF18481648C1F3881118BFD4
:1009E400002302F03F02A1FB0001FFF709FC104BBA
:1009F4005B68C3F3014301335B00B0FBF3F008BD54
:100A04004A684B68496813F4800314BF0A480948CC
:100A1400C1F3881118BF002302F03F02A1FB0001BB
:100A2400FFF7EEFB024B5B68C3F30273E5E700BF1D
:100A3400003802400024F40000127A0003682DE913
:100A4400F341DF07044610D423689E0767D4236864
:100A54001A0700F1B28023685B0700F1D080A26915
:100A6400002A40F0398100201EE0974B9A6802F07A
:100A74000C02042A10D09A6802F00C02082A02D14F
:100A84005B685D0208D4904B9A6802F00C020C2A51
:100A94000DD15A6850020AD58B4B1B689903D3D5E4
:100AA4006368002BD0D1012002B0BDE8F0816268F8
:100AB400B2F5803F11D11A6842F480321A60FFF710
:100AC40071FD814D06462B689A03BDD4FFF76AFD7C
:100AD400801B6428F7D90320E6E77B4DB2F5A02FED
:100AE4002B6807D143F480232B602B6843F48033B5
:100AF4002B60E4E723F480332B602B6823F48023FA
:100B04002B60002ADBD1FFF74DFD06462B689B03C3
:100B14009AD5FFF747FD801B6428F7D9DBE76A4BBA
:100B24009A6812F00C0F10D09A6802F00C02082A8E
:100B340002D15B685F0208D5634A936803F00C0333
:100B44000C2B11D153685E020ED45F4B1A689507C3
:100B540002D5E268012AA6D11A68216922F0F802B6
:100B640042EAC1021A6072E7E268584BB2B101224C
:100B74001A60FFF717FD544D06462B68980707D5F2
:100B84002B68226923F0F80343EAC2032B605EE773
:100B9400FFF708FD801B0228EFD99CE71A60FFF7D6
:100BA40001FD494D06462B6899077FF550AFFFF7C5
:100BB400F9FC801B0228F6D98DE76269444B7AB1AF
:100BC40001221A60FFF7EEFC3F4D06466B6F9F074C
:100BD4003FF541AFFFF7E6FC801B0228F6D97AE720
:100BE4001A60FFF7DFFC384D06466B6F98077FF5F8
:100BF40032AFFFF7D7FC801B0228F6D96BE7324BE4
:100C04001A6C12F0805228D101921A6C42F0805270
:100C14001A641B6C03F080530193019B01262D4D34
:100C24002B68D9051BD5A368274D012B27D12B6F22
:100C340043F001032B67FFF7B5FC234D074641F250
:100C440088382B6F9B0739D5002E3FF408AF1E4A16
:100C5400136C23F08053136401E70026DFE72B684D
:100C640043F480732B60FFF79DFC07462B68DA057D
:100C7400D9D4FFF797FCC01B0228F7D92BE7052B23
:100C840004D12B6F43F004032B67D0E72A6F22F0C3
:100C940001022A672A6F22F004022A67002BCAD1B4
:100CA400FFF780FC41F2883807462B6F9807CBD5B5
:100CB400FFF778FCC01B4045F7D90CE7FFF772FC3F
:100CC400C01B4045BDD906E700380240000047423A
:100CD400800E474200700040234DAB6803F00C03C4
:100CE400082B3FF4E0AE214E0023022A33602DD1BD
:100CF400FFF758FC07462B68990121D4226AE3695F
:100D04001343626A43EA8213E26A43EA0263226B90
:100D140043EA0273A26A144C5208013A43EA0243BA
:100D24006B6001233360FFF73DFC054623689A019D
:100D34003FF599AEFFF736FC401B0228F6D9CAE608
:100D4400FFF730FCC01B0228D5D9C4E6FFF72AFC04
:100D540004462B689B017FF586AEFFF723FC001B3E
:100D64000228F6D9B7E600BF0038024060004742C7
:100D740038B50368C1681A69044622F440520A432C
:100D84001A612569A268D968C0692A43656921F492
:100D940016412A4321F00C0102430A43DA605A69DE
:100DA400A16922F440720A43B0F5004F5A61254A02
:100DB40029D1934203D002F58062934220D1FFF7F8
:100DC400E5FD6268256892184FF000034FF01901A1
:100DD4005B41A0FB0101FFF713FA6421B0FBF1F4BE
:100DE40001FB1403DB003233B3FBF1F303F007021E
:100DF4005B0002EB041203F4F8731344AB6038BDD8
:100E0400FFF7B4FDDDE7934202D00F4A934216D1B7
:100E1400FFF7BCFD6368256819219A00A0FB010156
:100E24009B0FFFF7EDF96422B0FBF2F102FB110313
:100E34001B013233B3FBF2F303EB0113DEE7FFF7DD
:100E440095FDE7E7001001400014014010B5044689
:100E540040B390F8393003F0FF021BB980F8382012
:100E640000F01CFA2268242384F83930D36823F470
:100E74000053D3602046FFF77BFF23681A6922F4EE
:100E840090421A615A6922F02A025A61DA6842F4DD
:100E94000052DA6000202023E06384F8393084F8BB
:100EA4003A3010BD012010BD2DE9F04314228BB05F
:100EB4000DEB0200002100F077FA00243A4B019474
:100EC4001A6BDFF8F480394F394E42F004021A638A
:100ED4001A6B02F004020192019A02941A6B42F016
:100EE40080021A631A6B02F080020292029A03943F
:100EF4001A6B42F001021A631A6B02F001020392A8
:100F0400039A04941A6B42F002021A631B6B03F0F7
:100F14000203049322464046E021049BFFF784FC2D
:100F2400224638464FF44071FFF77EFC2246304695
:100F34004FF45071FFF778FC4FF40053059305A963
:100F44001C4B0693384601250794FFF78DFBE023DD
:100F540005A9404605934FF440794FF002080695E1
:100F640007940894FFF780FB05A93846CDF8149040
:100F74000695CDF81C800894FFF776FB402305A95D
:100F840030460593069507940894FFF76DFB05A971
:100F94003046CDF814900695CDF81C800894FFF7E0
:100FA40063FB0BB0BDE8F083003802400008024048
:100FB40000040240000021100000024038B5FFF791
:100FC400F1FA0F4B0446596898685A68091A4FF4A5
:100FD4007A7001320023A1FB0001FFF711F9094BDC
:100FE4001A689042084A03D21568AC4208BF01341B
:100FF400186000214FF47A731460E3FB040138BDD8
:1010040010E000E0300000202C0000202DE9F04129
:10101400D8B1DFF840800E4CB4FBF0F40025FFF7A4
:10102400CDFF0123D8E90067861B61EB0707AF42B8
:1010340008BFA64204D3C8E900011846BDE8F08100
:1010440000BFFFF7BBFF0023ECE70223F5E700BF77
:1010540040420F003800002030B595B03422002102
:1010640007A800F0A1F90021142202A800F09CF9BD
:1010740000251C4B00951A6C42F080521A641B6CBC
:10108400194A03F080530093009B0195136823F4DD
:10109400404343F48043136013680E9503F44043C4
:1010A4000193019B01230A9310230B930F934FF495
:1010B400A8730224109307A80423119307940D9492
:1010C40012941394FFF7BAFC0F23029321464FF4B2
:1010D400805302A80394049505930695FFF7AAFB91
:1010E40015B030BD00380240007000402DE9F041D9
:1010F400FFF732FAFFF7B0FFFFF7D6FE00F0B2F8C1
:101104000026394C394DB0464FF400512046FFF7C4
:1011140085FBC0B94FF47A704FF41676FFF776FF6B
:10112400B8FBF6F306FB138603F0010206F0030393
:1011340003EB8203013BB7B2052B07D8DFE803F0CA
:101144002F374B4B372F06F57A70E5E701224FF422
:1011540080712846FFF768FB00224FF4007128468F
:10116400FFF762FB01224FF480712046FFF75CFB1E
:1011740000224FF400712046FFF756FBB6F5967F28
:1011840022BFC7F515760336B7B214267E43B6F5EB
:101194007A7FA8BF4FF47A7608F10108B4E70022F9
:1011A4004FF480712846FFF73FFB0122D5E7002268
:1011B4004FF480712846FFF737FB01224FF400718A
:1011C4002846FFF731FB00224FF480712046FFF7D9
:1011D4002BFB0122CDE701224FF480712846FFF753
:1011E40023FB0022EAE700BF00080240000402409B
:1011F4007047000007B50E4B002100915A6C42F471
:1012040080425A645A6C02F480420092009A01911E
:101214001A6C42F080521A641B6C03F080530193E1
:101224000720019BFFF7C4F903B05DF804FB00BF7E
:10123400003802407047FEE7FEE7FEE7FEE770472E
:1012440070477047FFF7A2B9054BD3F8882042F4E2
:101254007002C3F888204FF000629A60704700BFA4
:1012640000ED00E008B50B480B4B4FF4E13E80E87D
:1012740008400C2200238360C360036142618361E0
:10128400C361FFF7E3FD18B1BDE80840FFF7B0BF45
:1012940008BD00BF440000200044004010B50446CF
:1012A40088B01422002103A800F07EF82268154BB0
:1012B4009A4224D103F5FA33002101911A6C1248A1
:1012C40042F400321A641A6C02F400320192019A58
:1012D40002911A6B42F001021A631B6B03F00103C3
:1012E4000293029B0C23039302230493012305938B
:1012F4000323069303A907230793FFF7B5F908B05F
:1013040010BD00BF0044004000000240DFF834D0AC
:10131400002103E00C4B5B58435004310B480C4B49
:1013240042189A42F6D30B4A02E0002342F8043BE7
:10133400094B9A42F9D3FFF787FF00F011F8FFF742
:10134400D5FE704700000220FC13000800000020B6
:101354000C0000201000002084000020FEE70000A4
:1013640070B50D4E0D4CA41BA4100025A54209D147
:101374000B4E0C4C00F020F8A41BA4100025A54231
:1013840005D170BD56F8253098470135EEE756F87B
:10139400253098470135F2E7F4130008F4130008E8
:1013A400F4130008F813000802440346934200D1E2
:1013B400704703F8011BF9E7F8B500BFF8BC08BC97
:1013C4009E467047F8B500BFF8BC08BC9E467047FF
:1013D40000000000000000000102030406070809E1
:0813E4000000000001020304F7
:0813EC0048EEFF7F0100000044
:0413F400E901000803
:0413F800C501000823
:0C13FC0001000000100000000024F400BC
:0400000508001311CB
:00000001FF
